{
    "_format": "hh-sol-artifact-1",
    "contractName": "OpenMarketplaceNFT",
    "sourceName": "contracts/OpenMarketplaceNFT.sol",
    "abi": [
        {
            "inputs": [
                {
                    "internalType": "address",
                    "name": "initialOwner",
                    "type": "address"
                }
            ],
            "stateMutability": "nonpayable",
            "type": "constructor"
        },
        {
            "inputs": [
                {
                    "internalType": "address",
                    "name": "sender",
                    "type": "address"
                },
                {
                    "internalType": "uint256",
                    "name": "tokenId",
                    "type": "uint256"
                },
                {
                    "internalType": "address",
                    "name": "owner",
                    "type": "address"
                }
            ],
            "name": "ERC721IncorrectOwner",
            "type": "error"
        },
        {
            "inputs": [
                {
                    "internalType": "address",
                    "name": "operator",
                    "type": "address"
                },
                {
                    "internalType": "uint256",
                    "name": "tokenId",
                    "type": "uint256"
                }
            ],
            "name": "ERC721InsufficientApproval",
            "type": "error"
        },
        {
            "inputs": [
                {
                    "internalType": "address",
                    "name": "approver",
                    "type": "address"
                }
            ],
            "name": "ERC721InvalidApprover",
            "type": "error"
        },
        {
            "inputs": [
                {
                    "internalType": "address",
                    "name": "operator",
                    "type": "address"
                }
            ],
            "name": "ERC721InvalidOperator",
            "type": "error"
        },
        {
            "inputs": [
                {
                    "internalType": "address",
                    "name": "owner",
                    "type": "address"
                }
            ],
            "name": "ERC721InvalidOwner",
            "type": "error"
        },
        {
            "inputs": [
                {
                    "internalType": "address",
                    "name": "receiver",
                    "type": "address"
                }
            ],
            "name": "ERC721InvalidReceiver",
            "type": "error"
        },
        {
            "inputs": [
                {
                    "internalType": "address",
                    "name": "sender",
                    "type": "address"
                }
            ],
            "name": "ERC721InvalidSender",
            "type": "error"
        },
        {
            "inputs": [
                {
                    "internalType": "uint256",
                    "name": "tokenId",
                    "type": "uint256"
                }
            ],
            "name": "ERC721NonexistentToken",
            "type": "error"
        },
        {
            "inputs": [
                {
                    "internalType": "address",
                    "name": "owner",
                    "type": "address"
                }
            ],
            "name": "OwnableInvalidOwner",
            "type": "error"
        },
        {
            "inputs": [
                {
                    "internalType": "address",
                    "name": "account",
                    "type": "address"
                }
            ],
            "name": "OwnableUnauthorizedAccount",
            "type": "error"
        },
        {
            "anonymous": false,
            "inputs": [
                {
                    "indexed": true,
                    "internalType": "address",
                    "name": "owner",
                    "type": "address"
                },
                {
                    "indexed": true,
                    "internalType": "address",
                    "name": "approved",
                    "type": "address"
                },
                {
                    "indexed": true,
                    "internalType": "uint256",
                    "name": "tokenId",
                    "type": "uint256"
                }
            ],
            "name": "Approval",
            "type": "event"
        },
        {
            "anonymous": false,
            "inputs": [
                {
                    "indexed": true,
                    "internalType": "address",
                    "name": "owner",
                    "type": "address"
                },
                {
                    "indexed": true,
                    "internalType": "address",
                    "name": "operator",
                    "type": "address"
                },
                {
                    "indexed": false,
                    "internalType": "bool",
                    "name": "approved",
                    "type": "bool"
                }
            ],
            "name": "ApprovalForAll",
            "type": "event"
        },
        {
            "anonymous": false,
            "inputs": [
                {
                    "indexed": false,
                    "internalType": "uint256",
                    "name": "_fromTokenId",
                    "type": "uint256"
                },
                {
                    "indexed": false,
                    "internalType": "uint256",
                    "name": "_toTokenId",
                    "type": "uint256"
                }
            ],
            "name": "BatchMetadataUpdate",
            "type": "event"
        },
        {
            "anonymous": false,
            "inputs": [
                {
                    "indexed": false,
                    "internalType": "uint256",
                    "name": "_tokenId",
                    "type": "uint256"
                }
            ],
            "name": "MetadataUpdate",
            "type": "event"
        },
        {
            "anonymous": false,
            "inputs": [
                {
                    "indexed": true,
                    "internalType": "address",
                    "name": "previousOwner",
                    "type": "address"
                },
                {
                    "indexed": true,
                    "internalType": "address",
                    "name": "newOwner",
                    "type": "address"
                }
            ],
            "name": "OwnershipTransferred",
            "type": "event"
        },
        {
            "anonymous": false,
            "inputs": [
                {
                    "indexed": true,
                    "internalType": "address",
                    "name": "from",
                    "type": "address"
                },
                {
                    "indexed": true,
                    "internalType": "address",
                    "name": "to",
                    "type": "address"
                },
                {
                    "indexed": true,
                    "internalType": "uint256",
                    "name": "tokenId",
                    "type": "uint256"
                }
            ],
            "name": "Transfer",
            "type": "event"
        },
        {
            "inputs": [
                {
                    "internalType": "address",
                    "name": "to",
                    "type": "address"
                },
                {
                    "internalType": "uint256",
                    "name": "tokenId",
                    "type": "uint256"
                }
            ],
            "name": "approve",
            "outputs": [],
            "stateMutability": "nonpayable",
            "type": "function"
        },
        {
            "inputs": [
                {
                    "internalType": "address",
                    "name": "owner",
                    "type": "address"
                }
            ],
            "name": "balanceOf",
            "outputs": [
                {
                    "internalType": "uint256",
                    "name": "",
                    "type": "uint256"
                }
            ],
            "stateMutability": "view",
            "type": "function"
        },
        {
            "inputs": [
                {
                    "internalType": "uint256",
                    "name": "tokenId",
                    "type": "uint256"
                }
            ],
            "name": "getApproved",
            "outputs": [
                {
                    "internalType": "address",
                    "name": "",
                    "type": "address"
                }
            ],
            "stateMutability": "view",
            "type": "function"
        },
        {
            "inputs": [
                {
                    "internalType": "address",
                    "name": "owner",
                    "type": "address"
                },
                {
                    "internalType": "address",
                    "name": "operator",
                    "type": "address"
                }
            ],
            "name": "isApprovedForAll",
            "outputs": [
                {
                    "internalType": "bool",
                    "name": "",
                    "type": "bool"
                }
            ],
            "stateMutability": "view",
            "type": "function"
        },
        {
            "inputs": [
                {
                    "internalType": "string",
                    "name": "tokenURI",
                    "type": "string"
                }
            ],
            "name": "mint",
            "outputs": [
                {
                    "internalType": "uint256",
                    "name": "",
                    "type": "uint256"
                }
            ],
            "stateMutability": "nonpayable",
            "type": "function"
        },
        {
            "inputs": [],
            "name": "name",
            "outputs": [
                {
                    "internalType": "string",
                    "name": "",
                    "type": "string"
                }
            ],
            "stateMutability": "view",
            "type": "function"
        },
        {
            "inputs": [],
            "name": "owner",
            "outputs": [
                {
                    "internalType": "address",
                    "name": "",
                    "type": "address"
                }
            ],
            "stateMutability": "view",
            "type": "function"
        },
        {
            "inputs": [
                {
                    "internalType": "uint256",
                    "name": "tokenId",
                    "type": "uint256"
                }
            ],
            "name": "ownerOf",
            "outputs": [
                {
                    "internalType": "address",
                    "name": "",
                    "type": "address"
                }
            ],
            "stateMutability": "view",
            "type": "function"
        },
        {
            "inputs": [],
            "name": "renounceOwnership",
            "outputs": [],
            "stateMutability": "nonpayable",
            "type": "function"
        },
        {
            "inputs": [
                {
                    "internalType": "address",
                    "name": "from",
                    "type": "address"
                },
                {
                    "internalType": "address",
                    "name": "to",
                    "type": "address"
                },
                {
                    "internalType": "uint256",
                    "name": "tokenId",
                    "type": "uint256"
                }
            ],
            "name": "safeTransferFrom",
            "outputs": [],
            "stateMutability": "nonpayable",
            "type": "function"
        },
        {
            "inputs": [
                {
                    "internalType": "address",
                    "name": "from",
                    "type": "address"
                },
                {
                    "internalType": "address",
                    "name": "to",
                    "type": "address"
                },
                {
                    "internalType": "uint256",
                    "name": "tokenId",
                    "type": "uint256"
                },
                {
                    "internalType": "bytes",
                    "name": "data",
                    "type": "bytes"
                }
            ],
            "name": "safeTransferFrom",
            "outputs": [],
            "stateMutability": "nonpayable",
            "type": "function"
        },
        {
            "inputs": [
                {
                    "internalType": "address",
                    "name": "operator",
                    "type": "address"
                },
                {
                    "internalType": "bool",
                    "name": "approved",
                    "type": "bool"
                }
            ],
            "name": "setApprovalForAll",
            "outputs": [],
            "stateMutability": "nonpayable",
            "type": "function"
        },
        {
            "inputs": [
                {
                    "internalType": "bytes4",
                    "name": "interfaceId",
                    "type": "bytes4"
                }
            ],
            "name": "supportsInterface",
            "outputs": [
                {
                    "internalType": "bool",
                    "name": "",
                    "type": "bool"
                }
            ],
            "stateMutability": "view",
            "type": "function"
        },
        {
            "inputs": [],
            "name": "symbol",
            "outputs": [
                {
                    "internalType": "string",
                    "name": "",
                    "type": "string"
                }
            ],
            "stateMutability": "view",
            "type": "function"
        },
        {
            "inputs": [
                {
                    "internalType": "uint256",
                    "name": "tokenId",
                    "type": "uint256"
                }
            ],
            "name": "tokenURI",
            "outputs": [
                {
                    "internalType": "string",
                    "name": "",
                    "type": "string"
                }
            ],
            "stateMutability": "view",
            "type": "function"
        },
        {
            "inputs": [
                {
                    "internalType": "address",
                    "name": "from",
                    "type": "address"
                },
                {
                    "internalType": "address",
                    "name": "to",
                    "type": "address"
                },
                {
                    "internalType": "uint256",
                    "name": "tokenId",
                    "type": "uint256"
                }
            ],
            "name": "transferFrom",
            "outputs": [],
            "stateMutability": "nonpayable",
            "type": "function"
        },
        {
            "inputs": [
                {
                    "internalType": "address",
                    "name": "newOwner",
                    "type": "address"
                }
            ],
            "name": "transferOwnership",
            "outputs": [],
            "stateMutability": "nonpayable",
            "type": "function"
        }
    ],
    "bytecode": "0x60806040523480156200001157600080fd5b5060405162002c7738038062002c77833981810160405281019062000037919062000288565b806040518060400160405280601281526020017f4f70656e4d61726b6574706c6163654e465400000000000000000000000000008152506040518060400160405280600581526020017f4f4d4e46540000000000000000000000000000000000000000000000000000008152508160009081620000b5919062000534565b508060019081620000c7919062000534565b505050600073ffffffffffffffffffffffffffffffffffffffff168173ffffffffffffffffffffffffffffffffffffffff16036200013f5760006040517f1e4fbdf70000000000000000000000000000000000000000000000000000000081526004016200013691906200062c565b60405180910390fd5b62000150816200015860201b60201c565b505062000649565b6000600760009054906101000a900473ffffffffffffffffffffffffffffffffffffffff16905081600760006101000a81548173ffffffffffffffffffffffffffffffffffffffff021916908373ffffffffffffffffffffffffffffffffffffffff1602179055508173ffffffffffffffffffffffffffffffffffffffff168173ffffffffffffffffffffffffffffffffffffffff167f8be0079c531659141344cd1fd0a4f28419497f9722a3daafe3b4186f6b6457e060405160405180910390a35050565b600080fd5b600073ffffffffffffffffffffffffffffffffffffffff82169050919050565b6000620002508262000223565b9050919050565b620002628162000243565b81146200026e57600080fd5b50565b600081519050620002828162000257565b92915050565b600060208284031215620002a157620002a06200021e565b5b6000620002b18482850162000271565b91505092915050565b600081519050919050565b7f4e487b7100000000000000000000000000000000000000000000000000000000600052604160045260246000fd5b7f4e487b7100000000000000000000000000000000000000000000000000000000600052602260045260246000fd5b600060028204905060018216806200033c57607f821691505b602082108103620003525762000351620002f4565b5b50919050565b60008190508160005260206000209050919050565b60006020601f8301049050919050565b600082821b905092915050565b600060088302620003bc7fffffffffffffffffffffffffffffffffffffffffffffffffffffffffffffffff826200037d565b620003c886836200037d565b95508019841693508086168417925050509392505050565b6000819050919050565b6000819050919050565b6000620004156200040f6200040984620003e0565b620003ea565b620003e0565b9050919050565b6000819050919050565b6200043183620003f4565b6200044962000440826200041c565b8484546200038a565b825550505050565b600090565b6200046062000451565b6200046d81848462000426565b505050565b5b8181101562000495576200048960008262000456565b60018101905062000473565b5050565b601f821115620004e457620004ae8162000358565b620004b9846200036d565b81016020851015620004c9578190505b620004e1620004d8856200036d565b83018262000472565b50505b505050565b600082821c905092915050565b60006200050960001984600802620004e9565b1980831691505092915050565b6000620005248383620004f6565b9150826002028217905092915050565b6200053f82620002ba565b67ffffffffffffffff8111156200055b576200055a620002c5565b5b62000567825462000323565b6200057482828562000499565b600060209050601f831160018114620005ac576000841562000597578287015190505b620005a3858262000516565b86555062000613565b601f198416620005bc8662000358565b60005b82811015620005e657848901518255600182019150602085019450602081019050620005bf565b8683101562000606578489015162000602601f891682620004f6565b8355505b6001600288020188555050505b505050505050565b620006268162000243565b82525050565b60006020820190506200064360008301846200061b565b92915050565b61261e80620006596000396000f3fe608060405234801561001057600080fd5b506004361061010b5760003560e01c8063715018a6116100a2578063b88d4fde11610071578063b88d4fde146102a4578063c87b56dd146102c0578063d85d3d27146102f0578063e985e9c514610320578063f2fde38b146103505761010b565b8063715018a6146102425780638da5cb5b1461024c57806395d89b411461026a578063a22cb465146102885761010b565b806323b872dd116100de57806323b872dd146101aa57806342842e0e146101c65780636352211e146101e257806370a08231146102125761010b565b806301ffc9a71461011057806306fdde0314610140578063081812fc1461015e578063095ea7b31461018e575b600080fd5b61012a60048036038101906101259190611a89565b61036c565b6040516101379190611ad1565b60405180910390f35b6101486103cd565b6040516101559190611b7c565b60405180910390f35b61017860048036038101906101739190611bd4565b61045f565b6040516101859190611c42565b60405180910390f35b6101a860048036038101906101a39190611c89565b61047b565b005b6101c460048036038101906101bf9190611cc9565b610491565b005b6101e060048036038101906101db9190611cc9565b610593565b005b6101fc60048036038101906101f79190611bd4565b6105b3565b6040516102099190611c42565b60405180910390f35b61022c60048036038101906102279190611d1c565b6105c5565b6040516102399190611d58565b60405180910390f35b61024a61067f565b005b610254610693565b6040516102619190611c42565b60405180910390f35b6102726106bd565b60405161027f9190611b7c565b60405180910390f35b6102a2600480360381019061029d9190611d9f565b61074f565b005b6102be60048036038101906102b99190611f14565b610765565b005b6102da60048036038101906102d59190611bd4565b610782565b6040516102e79190611b7c565b60405180910390f35b61030a60048036038101906103059190612038565b610895565b6040516103179190611d58565b60405180910390f35b61033a60048036038101906103359190612081565b6108ce565b6040516103479190611ad1565b60405180910390f35b61036a60048036038101906103659190611d1c565b610962565b005b6000634906490660e01b7bffffffffffffffffffffffffffffffffffffffffffffffffffffffff1916827bffffffffffffffffffffffffffffffffffffffffffffffffffffffff191614806103c657506103c5826109e8565b5b9050919050565b6060600080546103dc906120f0565b80601f0160208091040260200160405190810160405280929190818152602001828054610408906120f0565b80156104555780601f1061042a57610100808354040283529160200191610455565b820191906000526020600020905b81548152906001019060200180831161043857829003601f168201915b5050505050905090565b600061046a82610aca565b5061047482610b52565b9050919050565b61048d8282610488610b8f565b610b97565b5050565b600073ffffffffffffffffffffffffffffffffffffffff168273ffffffffffffffffffffffffffffffffffffffff16036105035760006040517f64a0ae920000000000000000000000000000000000000000000000000000000081526004016104fa9190611c42565b60405180910390fd5b60006105178383610512610b8f565b610ba9565b90508373ffffffffffffffffffffffffffffffffffffffff168173ffffffffffffffffffffffffffffffffffffffff161461058d578382826040517f64283d7b00000000000000000000000000000000000000000000000000000000815260040161058493929190612121565b60405180910390fd5b50505050565b6105ae83838360405180602001604052806000815250610765565b505050565b60006105be82610aca565b9050919050565b60008073ffffffffffffffffffffffffffffffffffffffff168273ffffffffffffffffffffffffffffffffffffffff16036106385760006040517f89c62b6400000000000000000000000000000000000000000000000000000000815260040161062f9190611c42565b60405180910390fd5b600360008373ffffffffffffffffffffffffffffffffffffffff1673ffffffffffffffffffffffffffffffffffffffff168152602001908152602001600020549050919050565b610687610dc3565b6106916000610e4a565b565b6000600760009054906101000a900473ffffffffffffffffffffffffffffffffffffffff16905090565b6060600180546106cc906120f0565b80601f01602080910402602001604051908101604052809291908181526020018280546106f8906120f0565b80156107455780601f1061071a57610100808354040283529160200191610745565b820191906000526020600020905b81548152906001019060200180831161072857829003601f168201915b5050505050905090565b61076161075a610b8f565b8383610f10565b5050565b610770848484610491565b61077c8484848461107f565b50505050565b606061078d82610aca565b5060006006600084815260200190815260200160002080546107ae906120f0565b80601f01602080910402602001604051908101604052809291908181526020018280546107da906120f0565b80156108275780601f106107fc57610100808354040283529160200191610827565b820191906000526020600020905b81548152906001019060200180831161080a57829003601f168201915b505050505090506000610838611236565b9050600081510361084d578192505050610890565b60008251111561088257808260405160200161086a929190612194565b60405160208183030381529060405292505050610890565b61088b8461124d565b925050505b919050565b600080600860008154809291906108ab906121e7565b9190505590506108bb33826112b6565b6108c581846113af565b80915050919050565b6000600560008473ffffffffffffffffffffffffffffffffffffffff1673ffffffffffffffffffffffffffffffffffffffff16815260200190815260200160002060008373ffffffffffffffffffffffffffffffffffffffff1673ffffffffffffffffffffffffffffffffffffffff16815260200190815260200160002060009054906101000a900460ff16905092915050565b61096a610dc3565b600073ffffffffffffffffffffffffffffffffffffffff168173ffffffffffffffffffffffffffffffffffffffff16036109dc5760006040517f1e4fbdf70000000000000000000000000000000000000000000000000000000081526004016109d39190611c42565b60405180910390fd5b6109e581610e4a565b50565b60007f80ac58cd000000000000000000000000000000000000000000000000000000007bffffffffffffffffffffffffffffffffffffffffffffffffffffffff1916827bffffffffffffffffffffffffffffffffffffffffffffffffffffffff19161480610ab357507f5b5e139f000000000000000000000000000000000000000000000000000000007bffffffffffffffffffffffffffffffffffffffffffffffffffffffff1916827bffffffffffffffffffffffffffffffffffffffffffffffffffffffff1916145b80610ac35750610ac28261140b565b5b9050919050565b600080610ad683611475565b9050600073ffffffffffffffffffffffffffffffffffffffff168173ffffffffffffffffffffffffffffffffffffffff1603610b4957826040517f7e273289000000000000000000000000000000000000000000000000000000008152600401610b409190611d58565b60405180910390fd5b80915050919050565b60006004600083815260200190815260200160002060009054906101000a900473ffffffffffffffffffffffffffffffffffffffff169050919050565b600033905090565b610ba483838360016114b2565b505050565b600080610bb584611475565b9050600073ffffffffffffffffffffffffffffffffffffffff168373ffffffffffffffffffffffffffffffffffffffff1614610bf757610bf6818486611677565b5b600073ffffffffffffffffffffffffffffffffffffffff168173ffffffffffffffffffffffffffffffffffffffff1614610c8857610c396000856000806114b2565b6001600360008373ffffffffffffffffffffffffffffffffffffffff1673ffffffffffffffffffffffffffffffffffffffff168152602001908152602001600020600082825403925050819055505b600073ffffffffffffffffffffffffffffffffffffffff168573ffffffffffffffffffffffffffffffffffffffff1614610d0b576001600360008773ffffffffffffffffffffffffffffffffffffffff1673ffffffffffffffffffffffffffffffffffffffff168152602001908152602001600020600082825401925050819055505b846002600086815260200190815260200160002060006101000a81548173ffffffffffffffffffffffffffffffffffffffff021916908373ffffffffffffffffffffffffffffffffffffffff160217905550838573ffffffffffffffffffffffffffffffffffffffff168273ffffffffffffffffffffffffffffffffffffffff167fddf252ad1be2c89b69c2b068fc378daa952ba7f163c4a11628f55a4df523b3ef60405160405180910390a4809150509392505050565b610dcb610b8f565b73ffffffffffffffffffffffffffffffffffffffff16610de9610693565b73ffffffffffffffffffffffffffffffffffffffff1614610e4857610e0c610b8f565b6040517f118cdaa7000000000000000000000000000000000000000000000000000000008152600401610e3f9190611c42565b60405180910390fd5b565b6000600760009054906101000a900473ffffffffffffffffffffffffffffffffffffffff16905081600760006101000a81548173ffffffffffffffffffffffffffffffffffffffff021916908373ffffffffffffffffffffffffffffffffffffffff1602179055508173ffffffffffffffffffffffffffffffffffffffff168173ffffffffffffffffffffffffffffffffffffffff167f8be0079c531659141344cd1fd0a4f28419497f9722a3daafe3b4186f6b6457e060405160405180910390a35050565b600073ffffffffffffffffffffffffffffffffffffffff168273ffffffffffffffffffffffffffffffffffffffff1603610f8157816040517f5b08ba18000000000000000000000000000000000000000000000000000000008152600401610f789190611c42565b60405180910390fd5b80600560008573ffffffffffffffffffffffffffffffffffffffff1673ffffffffffffffffffffffffffffffffffffffff16815260200190815260200160002060008473ffffffffffffffffffffffffffffffffffffffff1673ffffffffffffffffffffffffffffffffffffffff16815260200190815260200160002060006101000a81548160ff0219169083151502179055508173ffffffffffffffffffffffffffffffffffffffff168373ffffffffffffffffffffffffffffffffffffffff167f17307eab39ab6107e8899845ad3d59bd9653f200f220920489ca2b5937696c31836040516110729190611ad1565b60405180910390a3505050565b60008373ffffffffffffffffffffffffffffffffffffffff163b1115611230578273ffffffffffffffffffffffffffffffffffffffff1663150b7a026110c3610b8f565b8685856040518563ffffffff1660e01b81526004016110e59493929190612284565b6020604051808303816000875af192505050801561112157506040513d601f19601f8201168201806040525081019061111e91906122e5565b60015b6111a5573d8060008114611151576040519150601f19603f3d011682016040523d82523d6000602084013e611156565b606091505b50600081510361119d57836040517f64a0ae920000000000000000000000000000000000000000000000000000000081526004016111949190611c42565b60405180910390fd5b805181602001fd5b63150b7a0260e01b7bffffffffffffffffffffffffffffffffffffffffffffffffffffffff1916817bffffffffffffffffffffffffffffffffffffffffffffffffffffffff19161461122e57836040517f64a0ae920000000000000000000000000000000000000000000000000000000081526004016112259190611c42565b60405180910390fd5b505b50505050565b606060405180602001604052806000815250905090565b606061125882610aca565b506000611263611236565b9050600081511161128357604051806020016040528060008152506112ae565b8061128d8461173b565b60405160200161129e929190612194565b6040516020818303038152906040525b915050919050565b600073ffffffffffffffffffffffffffffffffffffffff168273ffffffffffffffffffffffffffffffffffffffff16036113285760006040517f64a0ae9200000000000000000000000000000000000000000000000000000000815260040161131f9190611c42565b60405180910390fd5b600061133683836000610ba9565b9050600073ffffffffffffffffffffffffffffffffffffffff168173ffffffffffffffffffffffffffffffffffffffff16146113aa5760006040517f73c6ac6e0000000000000000000000000000000000000000000000000000000081526004016113a19190611c42565b60405180910390fd5b505050565b806006600084815260200190815260200160002090816113cf91906124be565b507ff8e1a15aba9398e019f0b49df1a4fde98ee17ae345cb5f6b5e2c27f5033e8ce7826040516113ff9190611d58565b60405180910390a15050565b60007f01ffc9a7000000000000000000000000000000000000000000000000000000007bffffffffffffffffffffffffffffffffffffffffffffffffffffffff1916827bffffffffffffffffffffffffffffffffffffffffffffffffffffffff1916149050919050565b60006002600083815260200190815260200160002060009054906101000a900473ffffffffffffffffffffffffffffffffffffffff169050919050565b80806114eb5750600073ffffffffffffffffffffffffffffffffffffffff168273ffffffffffffffffffffffffffffffffffffffff1614155b1561161f5760006114fb84610aca565b9050600073ffffffffffffffffffffffffffffffffffffffff168373ffffffffffffffffffffffffffffffffffffffff161415801561156657508273ffffffffffffffffffffffffffffffffffffffff168173ffffffffffffffffffffffffffffffffffffffff1614155b8015611579575061157781846108ce565b155b156115bb57826040517fa9fbf51f0000000000000000000000000000000000000000000000000000000081526004016115b29190611c42565b60405180910390fd5b811561161d57838573ffffffffffffffffffffffffffffffffffffffff168273ffffffffffffffffffffffffffffffffffffffff167f8c5be1e5ebec7d5bd14f71427d1e84f3dd0314c0f7b2291e5b200ac8c7c3b92560405160405180910390a45b505b836004600085815260200190815260200160002060006101000a81548173ffffffffffffffffffffffffffffffffffffffff021916908373ffffffffffffffffffffffffffffffffffffffff16021790555050505050565b611682838383611809565b61173657600073ffffffffffffffffffffffffffffffffffffffff168373ffffffffffffffffffffffffffffffffffffffff16036116f757806040517f7e2732890000000000000000000000000000000000000000000000000000000081526004016116ee9190611d58565b60405180910390fd5b81816040517f177e802f00000000000000000000000000000000000000000000000000000000815260040161172d929190612590565b60405180910390fd5b505050565b60606000600161174a846118ca565b01905060008167ffffffffffffffff81111561176957611768611de9565b5b6040519080825280601f01601f19166020018201604052801561179b5781602001600182028036833780820191505090505b509050600082602001820190505b6001156117fe578080600190039150507f3031323334353637383961626364656600000000000000000000000000000000600a86061a8153600a85816117f2576117f16125b9565b5b049450600085036117a9575b819350505050919050565b60008073ffffffffffffffffffffffffffffffffffffffff168373ffffffffffffffffffffffffffffffffffffffff16141580156118c157508273ffffffffffffffffffffffffffffffffffffffff168473ffffffffffffffffffffffffffffffffffffffff161480611882575061188184846108ce565b5b806118c057508273ffffffffffffffffffffffffffffffffffffffff166118a883610b52565b73ffffffffffffffffffffffffffffffffffffffff16145b5b90509392505050565b600080600090507a184f03e93ff9f4daa797ed6e38ed64bf6a1f0100000000000000008310611928577a184f03e93ff9f4daa797ed6e38ed64bf6a1f010000000000000000838161191e5761191d6125b9565b5b0492506040810190505b6d04ee2d6d415b85acef81000000008310611965576d04ee2d6d415b85acef8100000000838161195b5761195a6125b9565b5b0492506020810190505b662386f26fc10000831061199457662386f26fc10000838161198a576119896125b9565b5b0492506010810190505b6305f5e10083106119bd576305f5e10083816119b3576119b26125b9565b5b0492506008810190505b61271083106119e25761271083816119d8576119d76125b9565b5b0492506004810190505b60648310611a0557606483816119fb576119fa6125b9565b5b0492506002810190505b600a8310611a14576001810190505b80915050919050565b6000604051905090565b600080fd5b600080fd5b60007fffffffff0000000000000000000000000000000000000000000000000000000082169050919050565b611a6681611a31565b8114611a7157600080fd5b50565b600081359050611a8381611a5d565b92915050565b600060208284031215611a9f57611a9e611a27565b5b6000611aad84828501611a74565b91505092915050565b60008115159050919050565b611acb81611ab6565b82525050565b6000602082019050611ae66000830184611ac2565b92915050565b600081519050919050565b600082825260208201905092915050565b60005b83811015611b26578082015181840152602081019050611b0b565b60008484015250505050565b6000601f19601f8301169050919050565b6000611b4e82611aec565b611b588185611af7565b9350611b68818560208601611b08565b611b7181611b32565b840191505092915050565b60006020820190508181036000830152611b968184611b43565b905092915050565b6000819050919050565b611bb181611b9e565b8114611bbc57600080fd5b50565b600081359050611bce81611ba8565b92915050565b600060208284031215611bea57611be9611a27565b5b6000611bf884828501611bbf565b91505092915050565b600073ffffffffffffffffffffffffffffffffffffffff82169050919050565b6000611c2c82611c01565b9050919050565b611c3c81611c21565b82525050565b6000602082019050611c576000830184611c33565b92915050565b611c6681611c21565b8114611c7157600080fd5b50565b600081359050611c8381611c5d565b92915050565b60008060408385031215611ca057611c9f611a27565b5b6000611cae85828601611c74565b9250506020611cbf85828601611bbf565b9150509250929050565b600080600060608486031215611ce257611ce1611a27565b5b6000611cf086828701611c74565b9350506020611d0186828701611c74565b9250506040611d1286828701611bbf565b9150509250925092565b600060208284031215611d3257611d31611a27565b5b6000611d4084828501611c74565b91505092915050565b611d5281611b9e565b82525050565b6000602082019050611d6d6000830184611d49565b92915050565b611d7c81611ab6565b8114611d8757600080fd5b50565b600081359050611d9981611d73565b92915050565b60008060408385031215611db657611db5611a27565b5b6000611dc485828601611c74565b9250506020611dd585828601611d8a565b9150509250929050565b600080fd5b600080fd5b7f4e487b7100000000000000000000000000000000000000000000000000000000600052604160045260246000fd5b611e2182611b32565b810181811067ffffffffffffffff82111715611e4057611e3f611de9565b5b80604052505050565b6000611e53611a1d565b9050611e5f8282611e18565b919050565b600067ffffffffffffffff821115611e7f57611e7e611de9565b5b611e8882611b32565b9050602081019050919050565b82818337600083830152505050565b6000611eb7611eb284611e64565b611e49565b905082815260208101848484011115611ed357611ed2611de4565b5b611ede848285611e95565b509392505050565b600082601f830112611efb57611efa611ddf565b5b8135611f0b848260208601611ea4565b91505092915050565b60008060008060808587031215611f2e57611f2d611a27565b5b6000611f3c87828801611c74565b9450506020611f4d87828801611c74565b9350506040611f5e87828801611bbf565b925050606085013567ffffffffffffffff811115611f7f57611f7e611a2c565b5b611f8b87828801611ee6565b91505092959194509250565b600067ffffffffffffffff821115611fb257611fb1611de9565b5b611fbb82611b32565b9050602081019050919050565b6000611fdb611fd684611f97565b611e49565b905082815260208101848484011115611ff757611ff6611de4565b5b612002848285611e95565b509392505050565b600082601f83011261201f5761201e611ddf565b5b813561202f848260208601611fc8565b91505092915050565b60006020828403121561204e5761204d611a27565b5b600082013567ffffffffffffffff81111561206c5761206b611a2c565b5b6120788482850161200a565b91505092915050565b6000806040838503121561209857612097611a27565b5b60006120a685828601611c74565b92505060206120b785828601611c74565b9150509250929050565b7f4e487b7100000000000000000000000000000000000000000000000000000000600052602260045260246000fd5b6000600282049050600182168061210857607f821691505b60208210810361211b5761211a6120c1565b5b50919050565b60006060820190506121366000830186611c33565b6121436020830185611d49565b6121506040830184611c33565b949350505050565b600081905092915050565b600061216e82611aec565b6121788185612158565b9350612188818560208601611b08565b80840191505092915050565b60006121a08285612163565b91506121ac8284612163565b91508190509392505050565b7f4e487b7100000000000000000000000000000000000000000000000000000000600052601160045260246000fd5b60006121f282611b9e565b91507fffffffffffffffffffffffffffffffffffffffffffffffffffffffffffffffff8203612224576122236121b8565b5b600182019050919050565b600081519050919050565b600082825260208201905092915050565b60006122568261222f565b612260818561223a565b9350612270818560208601611b08565b61227981611b32565b840191505092915050565b60006080820190506122996000830187611c33565b6122a66020830186611c33565b6122b36040830185611d49565b81810360608301526122c5818461224b565b905095945050505050565b6000815190506122df81611a5d565b92915050565b6000602082840312156122fb576122fa611a27565b5b6000612309848285016122d0565b91505092915050565b60008190508160005260206000209050919050565b60006020601f8301049050919050565b600082821b905092915050565b6000600883026123747fffffffffffffffffffffffffffffffffffffffffffffffffffffffffffffffff82612337565b61237e8683612337565b95508019841693508086168417925050509392505050565b6000819050919050565b60006123bb6123b66123b184611b9e565b612396565b611b9e565b9050919050565b6000819050919050565b6123d5836123a0565b6123e96123e1826123c2565b848454612344565b825550505050565b600090565b6123fe6123f1565b6124098184846123cc565b505050565b5b8181101561242d576124226000826123f6565b60018101905061240f565b5050565b601f8211156124725761244381612312565b61244c84612327565b8101602085101561245b578190505b61246f61246785612327565b83018261240e565b50505b505050565b600082821c905092915050565b600061249560001984600802612477565b1980831691505092915050565b60006124ae8383612484565b9150826002028217905092915050565b6124c782611aec565b67ffffffffffffffff8111156124e0576124df611de9565b5b6124ea82546120f0565b6124f5828285612431565b600060209050601f8311600181146125285760008415612516578287015190505b61252085826124a2565b865550612588565b601f19841661253686612312565b60005b8281101561255e57848901518255600182019150602085019450602081019050612539565b8683101561257b5784890151612577601f891682612484565b8355505b6001600288020188555050505b505050505050565b60006040820190506125a56000830185611c33565b6125b26020830184611d49565b9392505050565b7f4e487b7100000000000000000000000000000000000000000000000000000000600052601260045260246000fdfea26469706673582212202c38adf31135dcdec46456f1536383538a2192afbf6df22fc3e18098cae7f31a64736f6c63430008180033",
    "linkReferences": {},
    "deployedLinkReferences": {}
}