{
  "_format": "hh-sol-artifact-1",
  "contractName": "OpenMarketplace",
  "sourceName": "contracts/OpenMarketplace.sol",
  "abi": [
    {
      "inputs": [
        {
          "internalType": "address",
          "name": "initialOwner",
          "type": "address"
        },
        {
          "internalType": "address",
          "name": "nftContractAddress",
          "type": "address"
        }
      ],
      "stateMutability": "nonpayable",
      "type": "constructor"
    },
    {
      "inputs": [],
      "name": "CanNotBuyFromYourself",
      "type": "error"
    },
    {
      "inputs": [
        {
          "internalType": "uint256",
          "name": "tokenId",
          "type": "uint256"
        },
        {
          "internalType": "uint256",
          "name": "price",
          "type": "uint256"
        }
      ],
      "name": "IncorrectFundsSent",
      "type": "error"
    },
    {
      "inputs": [
        {
          "internalType": "uint16",
          "name": "newFeePercent",
          "type": "uint16"
        }
      ],
      "name": "InvalidMarketFeePercent",
      "type": "error"
    },
    {
      "inputs": [
        {
          "internalType": "uint256",
          "name": "tokenId",
          "type": "uint256"
        }
      ],
      "name": "MarketListingAlreadyExist",
      "type": "error"
    },
    {
      "inputs": [
        {
          "internalType": "uint256",
          "name": "tokenId",
          "type": "uint256"
        }
      ],
      "name": "MarketListingDoesNotExist",
      "type": "error"
    },
    {
      "inputs": [
        {
          "internalType": "uint256",
          "name": "tokenId",
          "type": "uint256"
        }
      ],
      "name": "MarketListingIsNotActive",
      "type": "error"
    },
    {
      "inputs": [
        {
          "internalType": "uint256",
          "name": "tokenId",
          "type": "uint256"
        }
      ],
      "name": "MarketNftManagementIsNotApproved",
      "type": "error"
    },
    {
      "inputs": [
        {
          "internalType": "uint256",
          "name": "tokenId",
          "type": "uint256"
        }
      ],
      "name": "MarketNonexistentToken",
      "type": "error"
    },
    {
      "inputs": [
        {
          "internalType": "uint256",
          "name": "tokenId",
          "type": "uint256"
        }
      ],
      "name": "MarketSenderIsNotNftOwner",
      "type": "error"
    },
    {
      "inputs": [
        {
          "internalType": "address",
          "name": "owner",
          "type": "address"
        }
      ],
      "name": "OwnableInvalidOwner",
      "type": "error"
    },
    {
      "inputs": [
        {
          "internalType": "address",
          "name": "account",
          "type": "address"
        }
      ],
      "name": "OwnableUnauthorizedAccount",
      "type": "error"
    },
    {
      "anonymous": false,
      "inputs": [
        {
          "indexed": false,
          "internalType": "uint256",
          "name": "newFeePercent",
          "type": "uint256"
        }
      ],
      "name": "MarketFeePercentChanged",
      "type": "event"
    },
    {
      "anonymous": false,
      "inputs": [
        {
          "indexed": false,
          "internalType": "bool",
          "name": "isActive",
          "type": "bool"
        }
      ],
      "name": "MarketListingActiveStatusChanged",
      "type": "event"
    },
    {
      "anonymous": false,
      "inputs": [
        {
          "indexed": false,
          "internalType": "address",
          "name": "seller",
          "type": "address"
        },
        {
          "indexed": false,
          "internalType": "uint256",
          "name": "tokenId",
          "type": "uint256"
        },
        {
          "indexed": false,
          "internalType": "uint256",
          "name": "price",
          "type": "uint256"
        }
      ],
      "name": "NftListed",
      "type": "event"
    },
    {
      "anonymous": false,
      "inputs": [
        {
          "indexed": false,
          "internalType": "address",
          "name": "buyer",
          "type": "address"
        },
        {
          "indexed": false,
          "internalType": "uint256",
          "name": "tokenId",
          "type": "uint256"
        },
        {
          "indexed": false,
          "internalType": "uint256",
          "name": "price",
          "type": "uint256"
        }
      ],
      "name": "NftPurchased",
      "type": "event"
    },
    {
      "anonymous": false,
      "inputs": [
        {
          "indexed": false,
          "internalType": "address",
          "name": "owner",
          "type": "address"
        },
        {
          "indexed": false,
          "internalType": "uint256",
          "name": "tokenId",
          "type": "uint256"
        }
      ],
      "name": "NftUnlisted",
      "type": "event"
    },
    {
      "anonymous": false,
      "inputs": [
        {
          "indexed": true,
          "internalType": "address",
          "name": "previousOwner",
          "type": "address"
        },
        {
          "indexed": true,
          "internalType": "address",
          "name": "newOwner",
          "type": "address"
        }
      ],
      "name": "OwnershipTransferred",
      "type": "event"
    },
    {
      "inputs": [],
      "name": "_marketplaceFeePercent",
      "outputs": [
        {
          "internalType": "uint16",
          "name": "",
          "type": "uint16"
        }
      ],
      "stateMutability": "view",
      "type": "function"
    },
    {
      "inputs": [],
      "name": "_nftContractAddress",
      "outputs": [
        {
          "internalType": "address",
          "name": "",
          "type": "address"
        }
      ],
      "stateMutability": "view",
      "type": "function"
    },
    {
      "inputs": [
        {
          "internalType": "uint256",
          "name": "tokenId",
          "type": "uint256"
        }
      ],
      "name": "buyNft",
      "outputs": [],
      "stateMutability": "payable",
      "type": "function"
    },
    {
      "inputs": [
        {
          "internalType": "uint16",
          "name": "tokenId",
          "type": "uint16"
        },
        {
          "internalType": "bool",
          "name": "isActive",
          "type": "bool"
        }
      ],
      "name": "changeListingActiveStatus",
      "outputs": [],
      "stateMutability": "nonpayable",
      "type": "function"
    },
    {
      "inputs": [
        {
          "internalType": "uint256",
          "name": "tokenId",
          "type": "uint256"
        },
        {
          "internalType": "uint256",
          "name": "price",
          "type": "uint256"
        }
      ],
      "name": "listNft",
      "outputs": [],
      "stateMutability": "nonpayable",
      "type": "function"
    },
    {
      "inputs": [
        {
          "internalType": "uint256",
          "name": "",
          "type": "uint256"
        }
      ],
      "name": "listings",
      "outputs": [
        {
          "internalType": "uint256",
          "name": "tokenId",
          "type": "uint256"
        },
        {
          "internalType": "uint256",
          "name": "price",
          "type": "uint256"
        },
        {
          "internalType": "uint256",
          "name": "marketPlaceFee",
          "type": "uint256"
        },
        {
          "internalType": "bool",
          "name": "isActive",
          "type": "bool"
        }
      ],
      "stateMutability": "view",
      "type": "function"
    },
    {
      "inputs": [],
      "name": "owner",
      "outputs": [
        {
          "internalType": "address",
          "name": "",
          "type": "address"
        }
      ],
      "stateMutability": "view",
      "type": "function"
    },
    {
      "inputs": [
        {
          "internalType": "address",
          "name": "",
          "type": "address"
        }
      ],
      "name": "pendingWithdrawals",
      "outputs": [
        {
          "internalType": "uint256",
          "name": "",
          "type": "uint256"
        }
      ],
      "stateMutability": "view",
      "type": "function"
    },
    {
      "inputs": [],
      "name": "renounceOwnership",
      "outputs": [],
      "stateMutability": "nonpayable",
      "type": "function"
    },
    {
      "inputs": [
        {
          "internalType": "uint16",
          "name": "newFeePercent",
          "type": "uint16"
        }
      ],
      "name": "setMarketFeePercent",
      "outputs": [],
      "stateMutability": "nonpayable",
      "type": "function"
    },
    {
      "inputs": [
        {
          "internalType": "address",
          "name": "newOwner",
          "type": "address"
        }
      ],
      "name": "transferOwnership",
      "outputs": [],
      "stateMutability": "nonpayable",
      "type": "function"
    },
    {
      "inputs": [
        {
          "internalType": "uint256",
          "name": "tokenId",
          "type": "uint256"
        }
      ],
      "name": "unlistNft",
      "outputs": [],
      "stateMutability": "nonpayable",
      "type": "function"
    },
    {
      "inputs": [],
      "name": "withdraw",
      "outputs": [],
      "stateMutability": "nonpayable",
      "type": "function"
    }
  ],
  "bytecode": "0x60806040523480156200001157600080fd5b5060405162001ac538038062001ac5833981810160405281019062000037919062000236565b81600073ffffffffffffffffffffffffffffffffffffffff168173ffffffffffffffffffffffffffffffffffffffff1603620000ad5760006040517f1e4fbdf7000000000000000000000000000000000000000000000000000000008152600401620000a491906200028e565b60405180910390fd5b620000be816200010860201b60201c565b5080600160006101000a81548173ffffffffffffffffffffffffffffffffffffffff021916908373ffffffffffffffffffffffffffffffffffffffff1602179055505050620002ab565b60008060009054906101000a900473ffffffffffffffffffffffffffffffffffffffff169050816000806101000a81548173ffffffffffffffffffffffffffffffffffffffff021916908373ffffffffffffffffffffffffffffffffffffffff1602179055508173ffffffffffffffffffffffffffffffffffffffff168173ffffffffffffffffffffffffffffffffffffffff167f8be0079c531659141344cd1fd0a4f28419497f9722a3daafe3b4186f6b6457e060405160405180910390a35050565b600080fd5b600073ffffffffffffffffffffffffffffffffffffffff82169050919050565b6000620001fe82620001d1565b9050919050565b6200021081620001f1565b81146200021c57600080fd5b50565b600081519050620002308162000205565b92915050565b6000806040838503121562000250576200024f620001cc565b5b600062000260858286016200021f565b925050602062000273858286016200021f565b9150509250929050565b6200028881620001f1565b82525050565b6000602082019050620002a560008301846200027d565b92915050565b61180a80620002bb6000396000f3fe6080604052600436106100c25760003560e01c80638268ca8d1161007f578063de74e57b11610059578063de74e57b1461020d578063f2fde38b1461024d578063f3f4370314610276578063fe8723e1146102b3576100c2565b80638268ca8d146101905780638da5cb5b146101b95780639e75689c146101e4576100c2565b8063174e581e146100c7578063190efb6b146100f2578063243adbdd1461011d5780633a37001c146101395780633ccfd60b14610162578063715018a614610179575b600080fd5b3480156100d357600080fd5b506100dc6102dc565b6040516100e99190611179565b60405180910390f35b3480156100fe57600080fd5b506101076102f0565b60405161011491906111d5565b60405180910390f35b6101376004803603810190610132919061122b565b610316565b005b34801561014557600080fd5b50610160600480360381019061015b9190611284565b6105eb565b005b34801561016e57600080fd5b50610177610694565b005b34801561018557600080fd5b5061018e610767565b005b34801561019c57600080fd5b506101b760048036038101906101b291906112e9565b61077b565b005b3480156101c557600080fd5b506101ce6107f1565b6040516101db91906111d5565b60405180910390f35b3480156101f057600080fd5b5061020b6004803603810190610206919061122b565b61081a565b005b34801561021957600080fd5b50610234600480360381019061022f919061122b565b610901565b6040516102449493929190611347565b60405180910390f35b34801561025957600080fd5b50610274600480360381019061026f91906113b8565b61093e565b005b34801561028257600080fd5b5061029d600480360381019061029891906113b8565b6109c4565b6040516102aa91906113e5565b60405180910390f35b3480156102bf57600080fd5b506102da60048036038101906102d59190611400565b6109dc565b005b600160149054906101000a900461ffff1681565b600160009054906101000a900473ffffffffffffffffffffffffffffffffffffffff1681565b600061032182610bc4565b905080600101543414610371578181600101546040517f9cee323e000000000000000000000000000000000000000000000000000000008152600401610368929190611440565b60405180910390fd5b6000600160009054906101000a900473ffffffffffffffffffffffffffffffffffffffff16905060008173ffffffffffffffffffffffffffffffffffffffff16636352211e856040518263ffffffff1660e01b81526004016103d391906113e5565b602060405180830381865afa1580156103f0573d6000803e3d6000fd5b505050506040513d601f19601f82011682018060405250810190610414919061147e565b90503373ffffffffffffffffffffffffffffffffffffffff168173ffffffffffffffffffffffffffffffffffffffff160361047b576040517f6baa5da900000000000000000000000000000000000000000000000000000000815260040160405180910390fd5b8260030160009054906101000a900460ff166104ce57836040517f86796e660000000000000000000000000000000000000000000000000000000081526004016104c591906113e5565b60405180910390fd5b60008360030160006101000a81548160ff0219169083151502179055508173ffffffffffffffffffffffffffffffffffffffff166342842e0e8233876040518463ffffffff1660e01b8152600401610528939291906114ab565b600060405180830381600087803b15801561054257600080fd5b505af1158015610556573d6000803e3d6000fd5b50505050610568818460020154610c2e565b7f7ce94e86eb25438639e252c1c285f9cade0bffa29864576f04c726016670a85833853460405161059b939291906114e2565b60405180910390a160026000858152602001908152602001600020600080820160009055600182016000905560028201600090556003820160006101000a81549060ff0219169055505050505050565b6105f3610cf6565b60648161ffff16111561063d57806040517fcf917ff20000000000000000000000000000000000000000000000000000000081526004016106349190611179565b60405180910390fd5b80600160146101000a81548161ffff021916908361ffff1602179055507f91f5801d23bae84284582a750184229c235d07b3e0908a3a78f2ec859bffafd3816040516106899190611554565b60405180910390a150565b6000600360003373ffffffffffffffffffffffffffffffffffffffff1673ffffffffffffffffffffffffffffffffffffffff1681526020019081526020016000205490506000600360003373ffffffffffffffffffffffffffffffffffffffff1673ffffffffffffffffffffffffffffffffffffffff168152602001908152602001600020819055503373ffffffffffffffffffffffffffffffffffffffff166108fc829081150290604051600060405180830381858888f19350505050158015610763573d6000803e3d6000fd5b5050565b61076f610cf6565b6107796000610d7d565b565b6107888261ffff16610e41565b60006107978361ffff16610bc4565b9050818160030160006101000a81548160ff0219169083151502179055507f24d76b9741121c1637ba51a895734867be6af2b30bdb6e653d788d1eb1fbf6f9826040516107e4919061156f565b60405180910390a1505050565b60008060009054906101000a900473ffffffffffffffffffffffffffffffffffffffff16905090565b600061082582610bc4565b90508060030160009054906101000a900460ff1661087a57816040517f86796e6600000000000000000000000000000000000000000000000000000000815260040161087191906113e5565b60405180910390fd5b61088382610e41565b60026000838152602001908152602001600020600080820160009055600182016000905560028201600090556003820160006101000a81549060ff021916905550507e38f3e47004950b890d9df255df5e1b6921cf589f4b44b2259df5009593666433836040516108f592919061158a565b60405180910390a15050565b60026020528060005260406000206000915090508060000154908060010154908060020154908060030160009054906101000a900460ff16905084565b610946610cf6565b600073ffffffffffffffffffffffffffffffffffffffff168173ffffffffffffffffffffffffffffffffffffffff16036109b85760006040517f1e4fbdf70000000000000000000000000000000000000000000000000000000081526004016109af91906111d5565b60405180910390fd5b6109c181610d7d565b50565b60036020528060005260406000206000915090505481565b60008111610a1f576040517f08c379a0000000000000000000000000000000000000000000000000000000008152600401610a1690611610565b60405180910390fd5b6000600260008481526020019081526020016000206040518060800160405290816000820154815260200160018201548152602001600282015481526020016003820160009054906101000a900460ff16151515158152505090506000816020015114610ac357826040517fab3a9cd8000000000000000000000000000000000000000000000000000000008152600401610aba91906113e5565b60405180910390fd5b610acc83610e41565b610ad583610f91565b60006064600160149054906101000a900461ffff1661ffff1684610af9919061165f565b610b0391906116d0565b905060006040518060800160405280868152602001858152602001838152602001600115158152509050806002600087815260200190815260200160002060008201518160000155602082015181600101556040820151816002015560608201518160030160006101000a81548160ff0219169083151502179055509050507f8cb0963b04034c4c13b179fd8bc2a3e07a88cd6b5dd0f6bee0db0bfa04d41441338686604051610bb5939291906114e2565b60405180910390a15050505050565b6000806002600084815260200190815260200160002090506000816001015403610c2557826040517fb69ccc3e000000000000000000000000000000000000000000000000000000008152600401610c1c91906113e5565b60405180910390fd5b80915050919050565b60008134610c3c9190611701565b905080600360008573ffffffffffffffffffffffffffffffffffffffff1673ffffffffffffffffffffffffffffffffffffffff1681526020019081526020016000206000828254610c8d9190611735565b925050819055508160036000610ca16107f1565b73ffffffffffffffffffffffffffffffffffffffff1673ffffffffffffffffffffffffffffffffffffffff1681526020019081526020016000206000828254610cea9190611735565b92505081905550505050565b610cfe611154565b73ffffffffffffffffffffffffffffffffffffffff16610d1c6107f1565b73ffffffffffffffffffffffffffffffffffffffff1614610d7b57610d3f611154565b6040517f118cdaa7000000000000000000000000000000000000000000000000000000008152600401610d7291906111d5565b60405180910390fd5b565b60008060009054906101000a900473ffffffffffffffffffffffffffffffffffffffff169050816000806101000a81548173ffffffffffffffffffffffffffffffffffffffff021916908373ffffffffffffffffffffffffffffffffffffffff1602179055508173ffffffffffffffffffffffffffffffffffffffff168173ffffffffffffffffffffffffffffffffffffffff167f8be0079c531659141344cd1fd0a4f28419497f9722a3daafe3b4186f6b6457e060405160405180910390a35050565b6000600160009054906101000a900473ffffffffffffffffffffffffffffffffffffffff1673ffffffffffffffffffffffffffffffffffffffff16636352211e836040518263ffffffff1660e01b8152600401610e9e91906113e5565b602060405180830381865afa925050508015610ed857506040513d601f19601f82011682018060405250810190610ed5919061147e565b60015b610f1957816040517f4a18f06f000000000000000000000000000000000000000000000000000000008152600401610f1091906113e5565b60405180910390fd5b809150503373ffffffffffffffffffffffffffffffffffffffff168173ffffffffffffffffffffffffffffffffffffffff1614610f8d57816040517f2b45453b000000000000000000000000000000000000000000000000000000008152600401610f8491906113e5565b60405180910390fd5b5050565b6000600160009054906101000a900473ffffffffffffffffffffffffffffffffffffffff1673ffffffffffffffffffffffffffffffffffffffff1663081812fc836040518263ffffffff1660e01b8152600401610fee91906113e5565b602060405180830381865afa15801561100b573d6000803e3d6000fd5b505050506040513d601f19601f8201168201806040525081019061102f919061147e565b90506000600160009054906101000a900473ffffffffffffffffffffffffffffffffffffffff1673ffffffffffffffffffffffffffffffffffffffff1663e985e9c533306040518363ffffffff1660e01b8152600401611090929190611769565b602060405180830381865afa1580156110ad573d6000803e3d6000fd5b505050506040513d601f19601f820116820180604052508101906110d191906117a7565b90503073ffffffffffffffffffffffffffffffffffffffff168273ffffffffffffffffffffffffffffffffffffffff161415801561110d575080155b1561114f57826040517fe885dd2200000000000000000000000000000000000000000000000000000000815260040161114691906113e5565b60405180910390fd5b505050565b600033905090565b600061ffff82169050919050565b6111738161115c565b82525050565b600060208201905061118e600083018461116a565b92915050565b600073ffffffffffffffffffffffffffffffffffffffff82169050919050565b60006111bf82611194565b9050919050565b6111cf816111b4565b82525050565b60006020820190506111ea60008301846111c6565b92915050565b600080fd5b6000819050919050565b611208816111f5565b811461121357600080fd5b50565b600081359050611225816111ff565b92915050565b600060208284031215611241576112406111f0565b5b600061124f84828501611216565b91505092915050565b6112618161115c565b811461126c57600080fd5b50565b60008135905061127e81611258565b92915050565b60006020828403121561129a576112996111f0565b5b60006112a88482850161126f565b91505092915050565b60008115159050919050565b6112c6816112b1565b81146112d157600080fd5b50565b6000813590506112e3816112bd565b92915050565b60008060408385031215611300576112ff6111f0565b5b600061130e8582860161126f565b925050602061131f858286016112d4565b9150509250929050565b611332816111f5565b82525050565b611341816112b1565b82525050565b600060808201905061135c6000830187611329565b6113696020830186611329565b6113766040830185611329565b6113836060830184611338565b95945050505050565b611395816111b4565b81146113a057600080fd5b50565b6000813590506113b28161138c565b92915050565b6000602082840312156113ce576113cd6111f0565b5b60006113dc848285016113a3565b91505092915050565b60006020820190506113fa6000830184611329565b92915050565b60008060408385031215611417576114166111f0565b5b600061142585828601611216565b925050602061143685828601611216565b9150509250929050565b60006040820190506114556000830185611329565b6114626020830184611329565b9392505050565b6000815190506114788161138c565b92915050565b600060208284031215611494576114936111f0565b5b60006114a284828501611469565b91505092915050565b60006060820190506114c060008301866111c6565b6114cd60208301856111c6565b6114da6040830184611329565b949350505050565b60006060820190506114f760008301866111c6565b6115046020830185611329565b6115116040830184611329565b949350505050565b6000819050919050565b600061153e6115396115348461115c565b611519565b6111f5565b9050919050565b61154e81611523565b82525050565b60006020820190506115696000830184611545565b92915050565b60006020820190506115846000830184611338565b92915050565b600060408201905061159f60008301856111c6565b6115ac6020830184611329565b9392505050565b600082825260208201905092915050565b7f496e76616c696420707269636500000000000000000000000000000000000000600082015250565b60006115fa600d836115b3565b9150611605826115c4565b602082019050919050565b60006020820190508181036000830152611629816115ed565b9050919050565b7f4e487b7100000000000000000000000000000000000000000000000000000000600052601160045260246000fd5b600061166a826111f5565b9150611675836111f5565b9250828202611683816111f5565b9150828204841483151761169a57611699611630565b5b5092915050565b7f4e487b7100000000000000000000000000000000000000000000000000000000600052601260045260246000fd5b60006116db826111f5565b91506116e6836111f5565b9250826116f6576116f56116a1565b5b828204905092915050565b600061170c826111f5565b9150611717836111f5565b925082820390508181111561172f5761172e611630565b5b92915050565b6000611740826111f5565b915061174b836111f5565b925082820190508082111561176357611762611630565b5b92915050565b600060408201905061177e60008301856111c6565b61178b60208301846111c6565b9392505050565b6000815190506117a1816112bd565b92915050565b6000602082840312156117bd576117bc6111f0565b5b60006117cb84828501611792565b9150509291505056fea2646970667358221220b33eaa25da03089b50bc3b55ddd87303b07263c8e878f0499b321d0105a975c164736f6c63430008180033",
  "linkReferences": {},
  "deployedLinkReferences": {}
}