{
  "_format": "hh-sol-artifact-1",
  "contractName": "OpenMarketplace",
  "sourceName": "contracts/OpenMarketplace.sol",
  "abi": [
    {
      "inputs": [
        {
          "internalType": "address",
          "name": "initialOwner",
          "type": "address"
        },
        {
          "internalType": "address",
          "name": "nftContractAddress",
          "type": "address"
        }
      ],
      "stateMutability": "nonpayable",
      "type": "constructor"
    },
    {
      "inputs": [],
      "name": "CanNotBuyFromYourself",
      "type": "error"
    },
    {
      "inputs": [
        {
          "internalType": "uint256",
          "name": "tokenId",
          "type": "uint256"
        },
        {
          "internalType": "uint256",
          "name": "price",
          "type": "uint256"
        }
      ],
      "name": "IncorrectFundsSent",
      "type": "error"
    },
    {
      "inputs": [
        {
          "internalType": "uint16",
          "name": "newFeePercent",
          "type": "uint16"
        }
      ],
      "name": "InvalidMarketFeePercent",
      "type": "error"
    },
    {
      "inputs": [
        {
          "internalType": "uint256",
          "name": "tokenId",
          "type": "uint256"
        }
      ],
      "name": "MarketListingAlreadyExist",
      "type": "error"
    },
    {
      "inputs": [
        {
          "internalType": "uint256",
          "name": "tokenId",
          "type": "uint256"
        }
      ],
      "name": "MarketListingDoesNotExist",
      "type": "error"
    },
    {
      "inputs": [
        {
          "internalType": "uint256",
          "name": "tokenId",
          "type": "uint256"
        }
      ],
      "name": "MarketListingIsNotActive",
      "type": "error"
    },
    {
      "inputs": [
        {
          "internalType": "uint256",
          "name": "tokenId",
          "type": "uint256"
        }
      ],
      "name": "MarketNftManagementIsNotApproved",
      "type": "error"
    },
    {
      "inputs": [
        {
          "internalType": "uint256",
          "name": "tokenId",
          "type": "uint256"
        }
      ],
      "name": "MarketNonexistentToken",
      "type": "error"
    },
    {
      "inputs": [
        {
          "internalType": "uint256",
          "name": "tokenId",
          "type": "uint256"
        }
      ],
      "name": "MarketSenderIsNotNftOwner",
      "type": "error"
    },
    {
      "inputs": [
        {
          "internalType": "address",
          "name": "owner",
          "type": "address"
        }
      ],
      "name": "OwnableInvalidOwner",
      "type": "error"
    },
    {
      "inputs": [
        {
          "internalType": "address",
          "name": "account",
          "type": "address"
        }
      ],
      "name": "OwnableUnauthorizedAccount",
      "type": "error"
    },
    {
      "anonymous": false,
      "inputs": [
        {
          "indexed": false,
          "internalType": "uint256",
          "name": "newFeePercent",
          "type": "uint256"
        }
      ],
      "name": "MarketFeePercentChanged",
      "type": "event"
    },
    {
      "anonymous": false,
      "inputs": [
        {
          "indexed": false,
          "internalType": "bool",
          "name": "isActive",
          "type": "bool"
        }
      ],
      "name": "MarketListingActiveStatusChanged",
      "type": "event"
    },
    {
      "anonymous": false,
      "inputs": [
        {
          "indexed": true,
          "internalType": "address",
          "name": "seller",
          "type": "address"
        },
        {
          "indexed": true,
          "internalType": "uint256",
          "name": "tokenId",
          "type": "uint256"
        },
        {
          "indexed": false,
          "internalType": "uint256",
          "name": "price",
          "type": "uint256"
        },
        {
          "indexed": false,
          "internalType": "uint256",
          "name": "marketplaceFee",
          "type": "uint256"
        }
      ],
      "name": "NftListed",
      "type": "event"
    },
    {
      "anonymous": false,
      "inputs": [
        {
          "indexed": true,
          "internalType": "address",
          "name": "buyer",
          "type": "address"
        },
        {
          "indexed": true,
          "internalType": "uint256",
          "name": "tokenId",
          "type": "uint256"
        },
        {
          "indexed": false,
          "internalType": "uint256",
          "name": "price",
          "type": "uint256"
        }
      ],
      "name": "NftPurchased",
      "type": "event"
    },
    {
      "anonymous": false,
      "inputs": [
        {
          "indexed": true,
          "internalType": "address",
          "name": "owner",
          "type": "address"
        },
        {
          "indexed": true,
          "internalType": "uint256",
          "name": "tokenId",
          "type": "uint256"
        }
      ],
      "name": "NftUnlisted",
      "type": "event"
    },
    {
      "anonymous": false,
      "inputs": [
        {
          "indexed": true,
          "internalType": "address",
          "name": "previousOwner",
          "type": "address"
        },
        {
          "indexed": true,
          "internalType": "address",
          "name": "newOwner",
          "type": "address"
        }
      ],
      "name": "OwnershipTransferred",
      "type": "event"
    },
    {
      "inputs": [],
      "name": "_marketplaceFeePercent",
      "outputs": [
        {
          "internalType": "uint16",
          "name": "",
          "type": "uint16"
        }
      ],
      "stateMutability": "view",
      "type": "function"
    },
    {
      "inputs": [],
      "name": "_nftContractAddress",
      "outputs": [
        {
          "internalType": "address",
          "name": "",
          "type": "address"
        }
      ],
      "stateMutability": "view",
      "type": "function"
    },
    {
      "inputs": [
        {
          "internalType": "uint256",
          "name": "tokenId",
          "type": "uint256"
        }
      ],
      "name": "buyNft",
      "outputs": [],
      "stateMutability": "payable",
      "type": "function"
    },
    {
      "inputs": [
        {
          "internalType": "uint16",
          "name": "tokenId",
          "type": "uint16"
        },
        {
          "internalType": "bool",
          "name": "isActive",
          "type": "bool"
        }
      ],
      "name": "changeListingActiveStatus",
      "outputs": [],
      "stateMutability": "nonpayable",
      "type": "function"
    },
    {
      "inputs": [
        {
          "internalType": "uint256",
          "name": "tokenId",
          "type": "uint256"
        },
        {
          "internalType": "uint256",
          "name": "price",
          "type": "uint256"
        }
      ],
      "name": "listNft",
      "outputs": [],
      "stateMutability": "nonpayable",
      "type": "function"
    },
    {
      "inputs": [
        {
          "internalType": "uint256",
          "name": "",
          "type": "uint256"
        }
      ],
      "name": "listings",
      "outputs": [
        {
          "internalType": "uint256",
          "name": "tokenId",
          "type": "uint256"
        },
        {
          "internalType": "uint256",
          "name": "price",
          "type": "uint256"
        },
        {
          "internalType": "uint256",
          "name": "marketplaceFee",
          "type": "uint256"
        },
        {
          "internalType": "bool",
          "name": "isActive",
          "type": "bool"
        }
      ],
      "stateMutability": "view",
      "type": "function"
    },
    {
      "inputs": [],
      "name": "owner",
      "outputs": [
        {
          "internalType": "address",
          "name": "",
          "type": "address"
        }
      ],
      "stateMutability": "view",
      "type": "function"
    },
    {
      "inputs": [
        {
          "internalType": "address",
          "name": "",
          "type": "address"
        }
      ],
      "name": "pendingWithdrawals",
      "outputs": [
        {
          "internalType": "uint256",
          "name": "",
          "type": "uint256"
        }
      ],
      "stateMutability": "view",
      "type": "function"
    },
    {
      "inputs": [],
      "name": "renounceOwnership",
      "outputs": [],
      "stateMutability": "nonpayable",
      "type": "function"
    },
    {
      "inputs": [
        {
          "internalType": "uint16",
          "name": "newFeePercent",
          "type": "uint16"
        }
      ],
      "name": "setMarketFeePercent",
      "outputs": [],
      "stateMutability": "nonpayable",
      "type": "function"
    },
    {
      "inputs": [
        {
          "internalType": "address",
          "name": "newOwner",
          "type": "address"
        }
      ],
      "name": "transferOwnership",
      "outputs": [],
      "stateMutability": "nonpayable",
      "type": "function"
    },
    {
      "inputs": [
        {
          "internalType": "uint256",
          "name": "tokenId",
          "type": "uint256"
        }
      ],
      "name": "unlistNft",
      "outputs": [],
      "stateMutability": "nonpayable",
      "type": "function"
    },
    {
      "inputs": [],
      "name": "withdraw",
      "outputs": [],
      "stateMutability": "nonpayable",
      "type": "function"
    }
  ],
  "bytecode": "0x60806040523480156200001157600080fd5b5060405162001a9a38038062001a9a833981810160405281019062000037919062000236565b81600073ffffffffffffffffffffffffffffffffffffffff168173ffffffffffffffffffffffffffffffffffffffff1603620000ad5760006040517f1e4fbdf7000000000000000000000000000000000000000000000000000000008152600401620000a491906200028e565b60405180910390fd5b620000be816200010860201b60201c565b5080600160006101000a81548173ffffffffffffffffffffffffffffffffffffffff021916908373ffffffffffffffffffffffffffffffffffffffff1602179055505050620002ab565b60008060009054906101000a900473ffffffffffffffffffffffffffffffffffffffff169050816000806101000a81548173ffffffffffffffffffffffffffffffffffffffff021916908373ffffffffffffffffffffffffffffffffffffffff1602179055508173ffffffffffffffffffffffffffffffffffffffff168173ffffffffffffffffffffffffffffffffffffffff167f8be0079c531659141344cd1fd0a4f28419497f9722a3daafe3b4186f6b6457e060405160405180910390a35050565b600080fd5b600073ffffffffffffffffffffffffffffffffffffffff82169050919050565b6000620001fe82620001d1565b9050919050565b6200021081620001f1565b81146200021c57600080fd5b50565b600081519050620002308162000205565b92915050565b6000806040838503121562000250576200024f620001cc565b5b600062000260858286016200021f565b925050602062000273858286016200021f565b9150509250929050565b6200028881620001f1565b82525050565b6000602082019050620002a560008301846200027d565b92915050565b6117df80620002bb6000396000f3fe6080604052600436106100c25760003560e01c80638268ca8d1161007f578063de74e57b11610059578063de74e57b1461020d578063f2fde38b1461024d578063f3f4370314610276578063fe8723e1146102b3576100c2565b80638268ca8d146101905780638da5cb5b146101b95780639e75689c146101e4576100c2565b8063174e581e146100c7578063190efb6b146100f2578063243adbdd1461011d5780633a37001c146101395780633ccfd60b14610162578063715018a614610179575b600080fd5b3480156100d357600080fd5b506100dc6102dc565b6040516100e991906111ae565b60405180910390f35b3480156100fe57600080fd5b506101076102f0565b604051610114919061120a565b60405180910390f35b61013760048036038101906101329190611260565b610316565b005b34801561014557600080fd5b50610160600480360381019061015b91906112b9565b6105ff565b005b34801561016e57600080fd5b506101776106a8565b005b34801561018557600080fd5b5061018e61077b565b005b34801561019c57600080fd5b506101b760048036038101906101b2919061131e565b61078f565b005b3480156101c557600080fd5b506101ce610805565b6040516101db919061120a565b60405180910390f35b3480156101f057600080fd5b5061020b60048036038101906102069190611260565b61082e565b005b34801561021957600080fd5b50610234600480360381019061022f9190611260565b610920565b604051610244949392919061137c565b60405180910390f35b34801561025957600080fd5b50610274600480360381019061026f91906113ed565b61095d565b005b34801561028257600080fd5b5061029d600480360381019061029891906113ed565b6109e3565b6040516102aa919061141a565b60405180910390f35b3480156102bf57600080fd5b506102da60048036038101906102d59190611435565b6109fb565b005b600160149054906101000a900461ffff1681565b600160009054906101000a900473ffffffffffffffffffffffffffffffffffffffff1681565b600061032182610bf9565b905080600101543414610371578181600101546040517f9cee323e000000000000000000000000000000000000000000000000000000008152600401610368929190611475565b60405180910390fd5b6000600160009054906101000a900473ffffffffffffffffffffffffffffffffffffffff16905060008173ffffffffffffffffffffffffffffffffffffffff16636352211e856040518263ffffffff1660e01b81526004016103d3919061141a565b602060405180830381865afa1580156103f0573d6000803e3d6000fd5b505050506040513d601f19601f8201168201806040525081019061041491906114b3565b90503373ffffffffffffffffffffffffffffffffffffffff168173ffffffffffffffffffffffffffffffffffffffff160361047b576040517f6baa5da900000000000000000000000000000000000000000000000000000000815260040160405180910390fd5b8260030160009054906101000a900460ff166104ce57836040517f86796e660000000000000000000000000000000000000000000000000000000081526004016104c5919061141a565b60405180910390fd5b60008360030160006101000a81548160ff0219169083151502179055508173ffffffffffffffffffffffffffffffffffffffff166342842e0e8233876040518463ffffffff1660e01b8152600401610528939291906114e0565b600060405180830381600087803b15801561054257600080fd5b505af1158015610556573d6000803e3d6000fd5b50505050610568818460020154610c63565b833373ffffffffffffffffffffffffffffffffffffffff167f7ce94e86eb25438639e252c1c285f9cade0bffa29864576f04c726016670a858346040516105af919061141a565b60405180910390a360026000858152602001908152602001600020600080820160009055600182016000905560028201600090556003820160006101000a81549060ff0219169055505050505050565b610607610d2b565b60648161ffff16111561065157806040517fcf917ff200000000000000000000000000000000000000000000000000000000815260040161064891906111ae565b60405180910390fd5b80600160146101000a81548161ffff021916908361ffff1602179055507f91f5801d23bae84284582a750184229c235d07b3e0908a3a78f2ec859bffafd38160405161069d9190611552565b60405180910390a150565b6000600360003373ffffffffffffffffffffffffffffffffffffffff1673ffffffffffffffffffffffffffffffffffffffff1681526020019081526020016000205490506000600360003373ffffffffffffffffffffffffffffffffffffffff1673ffffffffffffffffffffffffffffffffffffffff168152602001908152602001600020819055503373ffffffffffffffffffffffffffffffffffffffff166108fc829081150290604051600060405180830381858888f19350505050158015610777573d6000803e3d6000fd5b5050565b610783610d2b565b61078d6000610db2565b565b61079c8261ffff16610e76565b60006107ab8361ffff16610bf9565b9050818160030160006101000a81548160ff0219169083151502179055507f24d76b9741121c1637ba51a895734867be6af2b30bdb6e653d788d1eb1fbf6f9826040516107f8919061156d565b60405180910390a1505050565b60008060009054906101000a900473ffffffffffffffffffffffffffffffffffffffff16905090565b600061083982610bf9565b90508060030160009054906101000a900460ff1661088e57816040517f86796e66000000000000000000000000000000000000000000000000000000008152600401610885919061141a565b60405180910390fd5b61089782610e76565b60026000838152602001908152602001600020600080820160009055600182016000905560028201600090556003820160006101000a81549060ff02191690555050813373ffffffffffffffffffffffffffffffffffffffff167e38f3e47004950b890d9df255df5e1b6921cf589f4b44b2259df5009593666460405160405180910390a35050565b60026020528060005260406000206000915090508060000154908060010154908060020154908060030160009054906101000a900460ff16905084565b610965610d2b565b600073ffffffffffffffffffffffffffffffffffffffff168173ffffffffffffffffffffffffffffffffffffffff16036109d75760006040517f1e4fbdf70000000000000000000000000000000000000000000000000000000081526004016109ce919061120a565b60405180910390fd5b6109e081610db2565b50565b60036020528060005260406000206000915090505481565b60008111610a3e576040517f08c379a0000000000000000000000000000000000000000000000000000000008152600401610a35906115e5565b60405180910390fd5b6000600260008481526020019081526020016000206040518060800160405290816000820154815260200160018201548152602001600282015481526020016003820160009054906101000a900460ff16151515158152505090506000816020015114610ae257826040517fab3a9cd8000000000000000000000000000000000000000000000000000000008152600401610ad9919061141a565b60405180910390fd5b610aeb83610e76565b610af483610fc6565b60006064600160149054906101000a900461ffff1661ffff1684610b189190611634565b610b2291906116a5565b905060006040518060800160405280868152602001858152602001838152602001600115158152509050806002600087815260200190815260200160002060008201518160000155602082015181600101556040820151816002015560608201518160030160006101000a81548160ff021916908315150217905550905050843373ffffffffffffffffffffffffffffffffffffffff167f2b398b0d5c9cfc107b59e5d3579b06d59cb383fb0d8c0cf12feb6966d509fde28685604051610bea929190611475565b60405180910390a35050505050565b6000806002600084815260200190815260200160002090506000816001015403610c5a57826040517fb69ccc3e000000000000000000000000000000000000000000000000000000008152600401610c51919061141a565b60405180910390fd5b80915050919050565b60008134610c7191906116d6565b905080600360008573ffffffffffffffffffffffffffffffffffffffff1673ffffffffffffffffffffffffffffffffffffffff1681526020019081526020016000206000828254610cc2919061170a565b925050819055508160036000610cd6610805565b73ffffffffffffffffffffffffffffffffffffffff1673ffffffffffffffffffffffffffffffffffffffff1681526020019081526020016000206000828254610d1f919061170a565b92505081905550505050565b610d33611189565b73ffffffffffffffffffffffffffffffffffffffff16610d51610805565b73ffffffffffffffffffffffffffffffffffffffff1614610db057610d74611189565b6040517f118cdaa7000000000000000000000000000000000000000000000000000000008152600401610da7919061120a565b60405180910390fd5b565b60008060009054906101000a900473ffffffffffffffffffffffffffffffffffffffff169050816000806101000a81548173ffffffffffffffffffffffffffffffffffffffff021916908373ffffffffffffffffffffffffffffffffffffffff1602179055508173ffffffffffffffffffffffffffffffffffffffff168173ffffffffffffffffffffffffffffffffffffffff167f8be0079c531659141344cd1fd0a4f28419497f9722a3daafe3b4186f6b6457e060405160405180910390a35050565b6000600160009054906101000a900473ffffffffffffffffffffffffffffffffffffffff1673ffffffffffffffffffffffffffffffffffffffff16636352211e836040518263ffffffff1660e01b8152600401610ed3919061141a565b602060405180830381865afa925050508015610f0d57506040513d601f19601f82011682018060405250810190610f0a91906114b3565b60015b610f4e57816040517f4a18f06f000000000000000000000000000000000000000000000000000000008152600401610f45919061141a565b60405180910390fd5b809150503373ffffffffffffffffffffffffffffffffffffffff168173ffffffffffffffffffffffffffffffffffffffff1614610fc257816040517f2b45453b000000000000000000000000000000000000000000000000000000008152600401610fb9919061141a565b60405180910390fd5b5050565b6000600160009054906101000a900473ffffffffffffffffffffffffffffffffffffffff1673ffffffffffffffffffffffffffffffffffffffff1663081812fc836040518263ffffffff1660e01b8152600401611023919061141a565b602060405180830381865afa158015611040573d6000803e3d6000fd5b505050506040513d601f19601f8201168201806040525081019061106491906114b3565b90506000600160009054906101000a900473ffffffffffffffffffffffffffffffffffffffff1673ffffffffffffffffffffffffffffffffffffffff1663e985e9c533306040518363ffffffff1660e01b81526004016110c592919061173e565b602060405180830381865afa1580156110e2573d6000803e3d6000fd5b505050506040513d601f19601f82011682018060405250810190611106919061177c565b90503073ffffffffffffffffffffffffffffffffffffffff168273ffffffffffffffffffffffffffffffffffffffff1614158015611142575080155b1561118457826040517fe885dd2200000000000000000000000000000000000000000000000000000000815260040161117b919061141a565b60405180910390fd5b505050565b600033905090565b600061ffff82169050919050565b6111a881611191565b82525050565b60006020820190506111c3600083018461119f565b92915050565b600073ffffffffffffffffffffffffffffffffffffffff82169050919050565b60006111f4826111c9565b9050919050565b611204816111e9565b82525050565b600060208201905061121f60008301846111fb565b92915050565b600080fd5b6000819050919050565b61123d8161122a565b811461124857600080fd5b50565b60008135905061125a81611234565b92915050565b60006020828403121561127657611275611225565b5b60006112848482850161124b565b91505092915050565b61129681611191565b81146112a157600080fd5b50565b6000813590506112b38161128d565b92915050565b6000602082840312156112cf576112ce611225565b5b60006112dd848285016112a4565b91505092915050565b60008115159050919050565b6112fb816112e6565b811461130657600080fd5b50565b600081359050611318816112f2565b92915050565b6000806040838503121561133557611334611225565b5b6000611343858286016112a4565b925050602061135485828601611309565b9150509250929050565b6113678161122a565b82525050565b611376816112e6565b82525050565b6000608082019050611391600083018761135e565b61139e602083018661135e565b6113ab604083018561135e565b6113b8606083018461136d565b95945050505050565b6113ca816111e9565b81146113d557600080fd5b50565b6000813590506113e7816113c1565b92915050565b60006020828403121561140357611402611225565b5b6000611411848285016113d8565b91505092915050565b600060208201905061142f600083018461135e565b92915050565b6000806040838503121561144c5761144b611225565b5b600061145a8582860161124b565b925050602061146b8582860161124b565b9150509250929050565b600060408201905061148a600083018561135e565b611497602083018461135e565b9392505050565b6000815190506114ad816113c1565b92915050565b6000602082840312156114c9576114c8611225565b5b60006114d78482850161149e565b91505092915050565b60006060820190506114f560008301866111fb565b61150260208301856111fb565b61150f604083018461135e565b949350505050565b6000819050919050565b600061153c61153761153284611191565b611517565b61122a565b9050919050565b61154c81611521565b82525050565b60006020820190506115676000830184611543565b92915050565b6000602082019050611582600083018461136d565b92915050565b600082825260208201905092915050565b7f496e76616c696420707269636500000000000000000000000000000000000000600082015250565b60006115cf600d83611588565b91506115da82611599565b602082019050919050565b600060208201905081810360008301526115fe816115c2565b9050919050565b7f4e487b7100000000000000000000000000000000000000000000000000000000600052601160045260246000fd5b600061163f8261122a565b915061164a8361122a565b92508282026116588161122a565b9150828204841483151761166f5761166e611605565b5b5092915050565b7f4e487b7100000000000000000000000000000000000000000000000000000000600052601260045260246000fd5b60006116b08261122a565b91506116bb8361122a565b9250826116cb576116ca611676565b5b828204905092915050565b60006116e18261122a565b91506116ec8361122a565b925082820390508181111561170457611703611605565b5b92915050565b60006117158261122a565b91506117208361122a565b925082820190508082111561173857611737611605565b5b92915050565b600060408201905061175360008301856111fb565b61176060208301846111fb565b9392505050565b600081519050611776816112f2565b92915050565b60006020828403121561179257611791611225565b5b60006117a084828501611767565b9150509291505056fea264697066735822122045d9e5dac9ff7ea56ec4c4f52b659e2dd6bf032a1244e58278832c839328d47664736f6c63430008180033",
  "linkReferences": {},
  "deployedLinkReferences": {}
}